:10000000E5C006C105C104C103C16CC713C700C167
:10001000FFC0FEC0FDC00BCCFBC095CCF9C0F8C042
:10002000F7C08EC59AC590C5D0C5A0C5ACC5CDC515
:10003000CCC5CBC5CAC5C9C5C8C5C7C5BEC5BDC564
:10004000B8C5B7C5C2C5C1C5C0C5BFC5BEC5BDC59C
:10005000BCC5BBC5BAC5B9C5B8C5B7C5A0C59EC5E1
:100060000000000000000000000000000000000090
:1000700000000000000000000000000024FF10004D
:100080000000000000000000000000000000000070
:1000900000000000000024FF1000000024FF1000FA
:1000A00098B0C6D9E9F5FCFFFCF5E9D9C6B0987F50
:1000B000664E38251509020002091525384E667F5F
:1000C000E8A5F714D61471BFB968D38F7C454E35B7
:1000D000AD22C52A6713601435253E9C389EB16E4B
:1000E0000000000000007FFFFFFFFFFFFFFFFFFF9A
:1000F000FFFFFFFFFFFFBF5F2E170B050000000093
:10010000FFFFFFFFFFFFBF5F2E170B050000000082
:100110000000000000007FFFFFFFFFFFFFFFFFFF69
:100120002020202D404040404B80FFFFBF80645086
:10013000506480BFFFFF804B404040402D20202076
:100140002020202020202020404040404B6480FF81
:10015000FF80644B40404040202020202020202071
:1001600000030100000000055B0000000200030026
:100170000000000000000000000000000006000079
:1001800000010204081004081020401020408001E3
:1001900001FFFF003E02FFFF003EFF01643218FF37
:1001A000980000010A131D263039424C555F6871D2
:1001B0007B848E97A0AAB3BDC6CFD9E2ECF5FF0031
:1001C00000000000000000000000000011241FBE1D
:1001D000CFE5D2E0DEBFCDBF14BE88E10FB6F89404
:1001E00081BD11BC0FBE10E0A0E6B0E0EAEBFFE17C
:1001F00002C005900D92A639B107D9F711E0A6E922
:10020000B0E001C01D92A03AB107E1F702D0D3CE11
:10021000F7CE8FEF91E0B5DE81BFF894BB98C39A1B
:10022000D398DB9A71D2F8D5DDDA91D8789448D595
:1002300033DC0CD9FCCF81E090E0A3DE90E090931A
:10024000A3008093A20010927101009731F483E023
:1002500090E09093A3008093A20008958DE190E038
:1002600066E097DE8FE190E060E093DE80E290E070
:1002700060E08FDE83E190E060E08BDE089580E354
:1002800090E07FDE80936D0181E390E07ADE8093E1
:10029000A00082E390E075DE8093A80083E390E005
:1002A00070DE80937E01282F30E02F7729303105D2
:1002B00024F08078886080937E0184E390E061DEA2
:1002C0008093A40085E390E05CDE80936E0186E37A
:1002D00090E057DE8093A10087E390E052DE8093A8
:1002E000A90088E390E04DDE80937F01282F30E065
:1002F0002F772930310524F08078886080937F0142
:1003000089E390E03EDE8093A50008951F93CF938C
:10031000DF93C82F162F8B3698F48FE090E031DEF4
:10032000D82F80E190E02DDED81721F0882311F03E
:10033000DD2331F48C2F90E024DE811709F498DD61
:10034000DF91CF911F910895CF93DF9300D0CDB768
:10035000DEB790E04A83698314DE90E021E030E06C
:100360004A81042E02C0220F331F0A94E2F782232F
:100370009323698170E002C0660F771F4A95E2F708
:100380008617970709F474DD0F900F90DF91CF91D6
:1003900008952F923F924F925F926F927F928F9229
:1003A0009F92AF92BF92CF92DF92EF92FF920F9304
:1003B0001F93CF93DF9300D000D00F92CDB7DEB75D
:1003C0008DE190E0DEDD082F8093CC0083E190E0AA
:1003D000D8DD8093D20005FF1AC081E190E0D1DD25
:1003E000082F82E190E0CDDD202F30E02F733070B8
:1003F000322F222790E0282B392B3093A300209313
:10040000A20081E0809371012115310509F413DF09
:1004100083E090E0B6DD682F70E080E090E027ECAC
:100420003BE140E050E04BDDDC01CB0180939800E4
:1004300090939900A0939A00B0939B0084E090E081
:10044000A0DD682F70E080E090E027EC3BE140E029
:1004500050E035DDDC01CB018093B4009093B50012
:10046000A093B600B093B70082E490E08ADD90E0FC
:10047000A0E0B0E08093C0009093C100A093C200C0
:10048000B093C3008FE590E07CDD90E0A0E0B0E0A9
:100490008093C8009093C900A093CA00B093CB008A
:1004A0008091CC0084FF6AC008ED402E00E0502E01
:1004B00080E8682E81E0782E9EE0292E312CC30141
:1004C000B10116DD4B01AA2497FCA094BA2CD501EA
:1004D000C40117E0B695A795979587951A95D1F71A
:1004E000282F082F10E0C8018D5B9F4F2D8349DD19
:1004F000C82EDD24EE24FF242D812E3540F4C801C2
:100500008C5B9F4F3EDD90E0A0E0B0E005C0D701DE
:10051000C6010996A11DB11D8C199D09AE09BF091F
:100520001695102F0027179507959801442737FD3A
:100530004095542F821A930AA40AB50ABC01CD0132
:10054000A5019401BCDCDC01CB01F7E0B695A795D1
:1005500097958795FA95D1F78C0D9D1DAE1DBF1D02
:10056000F20181932F0120E831E0620E731E30E822
:1005700063163EEB730609F0A2CF7DC082E090E0E7
:1005800000DD682E85E090E0FCDCF82E86E090E04F
:10059000F8DC482E41E04F1510F0FF24FA9451E0AA
:1005A000541538F08F2D90E0860D911D9595879507
:1005B000482E6092D800C42CDD24B601661971095A
:1005C000882777FD8095982F22E430E040E050E0C6
:1005D00076DC8B019C01E9EDF0E0D901C80162E015
:1005E000862EAC01BD01032E3CE0769567955795AC
:1005F00047953A95D1F7302D460D41938394800F5E
:10060000911FA21FB31F4FE3841659F740921601A2
:100610004F2D50E04C195D09662757FD6095762FE8
:10062000DB01CA0126E0880F991FAA1FBB1F2A956C
:10063000D1F7840F951FA61FB71FE7E1F1E08C01EA
:100640009D01CC246894C6F8B901A801032E3CE0B2
:1006500076956795579547953A95D1F7302D440D86
:100660004193C394080F191F2A1F3B1F5EE7C5164D
:1006700059F7F09255018AE090E083DC8093740191
:10068000882349F18CE390E07CDC809372018DE358
:1006900090E077DC90E001969093AD008093AC0001
:1006A0008EE390E06EDC90E0019690939D00809345
:1006B0009C008FE390E065DC90E0019690937C01D4
:1006C00080937B0180E490E05CDC90E00196909365
:1006D000760180937501D3DD0F900F900F900F90EE
:1006E0000F90DF91CF911F910F91FF90EF90DF90CE
:1006F000CF90BF90AF909F908F907F906F905F90C2
:100700004F903F902F9008950F931F93CF93DF93B7
:1007100080E090E036DC8E3F81F08F3F09F03AC0F8
:1007200003EA11E0C3E4D0E0F80161918F01CE014A
:1007300030DC2196CF35D105B9F7C0E0D0E0FE011D
:10074000E05AFE4F6491CE0124DC2196C334D105DA
:10075000B1F7CFE5D0E0FE01E05AFE4F6491CE0143
:1007600018DC2196CB36D105B1F78BE690E060E03E
:1007700010DC8CE690E061E00CDCC0E7D0E0FE012C
:10078000E051F0406491CE0104DC2196F1E0C039E3
:10079000DF07A9F7FEDDDF91CF911F910F9108953B
:1007A0001F93CF93DF93C82F162F80E190E0E9DBF2
:1007B000D82F882341F08FE090E0E3DBD81719F0C1
:1007C000CF3009F05CC0D0E0C431D10509F457C086
:1007D000CA31D10509F453C0CC31D10509F44FC059
:1007E000CE01805690408930910508F448C0C7304A
:1007F000D10509F444C0CB36D10508F040C0C8305B
:10080000D10571F4183021F480E090E06FEF05C05D
:100810001930A9F580E090E06EEFBBDB75DF2EC0EC
:10082000CD31D10519F1C130D10561F411163CF576
:100830006091CC006F7D8DE190E0ABDB83E190E0D7
:1008400060E00DC0C231D10561F48BE690E099DB28
:10085000682F882311F4112391F081E190E099DB56
:1008600005C0C131D10511F4CBE6D0E0CE01612F36
:1008700090DBCE0186DB811711F48BDDF9DADF9195
:10088000CF911F9108951F93CF93DF9300D0CDB7E1
:10089000DEB7182F90E04A83698373DB69814A8150
:1008A000662349F061E070E002C0660F771F4A9549
:1008B000E2F7682B09C061E070E002C0660F771FA5
:1008C0004A95E2F760956823812F6ADF0F900F90B9
:1008D000DF91CF911F91089590918C019923A9F4F4
:1008E000882369F480918B018C3008F4B5C0109294
:1008F000850110928A0181E080938C01ADC08091C6
:100900008B018F5F80938B010895909185019530C5
:1009100051F480916C0190E069E070E0BEDA8A5A8F
:100920009E4F81D35BC090918A01983008F45EC0DD
:10093000909185019F5F90938501813009F051C0AE
:10094000909185019330E0F180938B0180916C014F
:100950002091850190E069E070E09FDAFC01EA5A9D
:10096000FE4F208380916C018093D10080917301B0
:1009700081608093730190916C0181E0911180E01E
:1009800080936C0180916C0190E069E070E085DA01
:10099000FC01EA5AFE4F108220E030E080916C01A9
:1009A00090E069E070E079DAFC01EA5AFE4FE20F6C
:1009B000F31F12822F5F3F4F2630310579F70EC0AB
:1009C00080916C0190E069E070E067DA8A5A9E4F8E
:1009D0002AD380918B018F5F80938B0110928C01C1
:1009E000089510928B0110928A01089590918A01C6
:1009F0009F5F90938A01813079F580918B018F5FA1
:100A000080938B01B0916C012091850130E08B2F98
:100A100090E069E070E041DAFC01EA5AFE4FE20F33
:100A2000F31FA28180918A0168E070E0681B710960
:100A300041E050E002C0440F551F6A95E2F7A42B35
:100A40008B2F90E069E070E028DAFC01EA5AFE4F53
:100A5000E20FF31FA283089510928B010895FC0109
:100A6000DC01A60FB11D12968C91129790E0837055
:100A70009070009741F513968C9113978F5FE085E6
:100A8000F0E014966C91DF01A074B070E0FF15C027
:100A9000262F30E02870307093E0359527959A9591
:100AA000E1F7462F4770109719F0622FECDE08959A
:100AB000E5FF09C0622F48DC0895109711F070DE41
:100AC0000895E5FD23DC08950F931F93CF93DF93E3
:100AD00000D0CDB7DEB78C01BE016F5F7F4FD5D29E
:100AE0006091D20070E06F77707029813A81611552
:100AF000710529F02617370711F4882379F0409102
:100B0000A2005091A3002417350709F069C0909105
:100B10007101891709F064C082E001C081E0D80149
:100B20001896EC911897E0938401F0E0EF71F07063
:100B30003197EF31F10508F048C0EF5EFF4F09949F
:100B4000C801AFD350D741C06115710511F080FFC6
:100B50003CC0C801A6D354D738C06115710511F047
:100B600080FF33C0C8019DD34ED72FC0F8018181CB
:100B7000E80FF11D9281892F8F70880F880F94FDE7
:100B8000836060E009C0D80111968C91F801E80FEC
:100B9000F11D82818F7061E0E1D317C05FDB28E037
:100BA00088E190E00FB6F894A89581BD0FBE21BDF5
:100BB000FFCFC80161E053DF08C0F8018181E80F71
:100BC000F11D6381606883E1EBDDACD6DC01CB0114
:100BD0008093860190938701A0938801B093890147
:100BE0000F900F90DF91CF911F910F9108951F9358
:100BF000CF93DF93EC01188580918401181709F0D9
:100C000050C08CE690E0BDD9982F212F30E02F7096
:100C1000307022303105D4F12430310524F02430F5
:100C20003105A1F504C0CE0160E019DF2FC08A8133
:100C3000482F50E09A012770307025303105D1F1EE
:100C40002630310524F42430310539F431C0263002
:100C5000310551F02730310551F08770990F990F08
:100C6000890F835099F006C0913081F425C09130EE
:100C700069F424C06B8143FF08C08C3621F48CE6F4
:100C800090E087D903C08CDD01C040DB4BD6DC018E
:100C9000CB018093860190938701A0938801B09344
:100CA0008901888580938401DF91CF911F910895F8
:100CB0008DE1E0CF8CE6DECF87E0DCCF88E0DACFD5
:100CC000CF92DF92EF92FF921F93CF93DF93CDB736
:100CD000DEB729970FB6F894DEBF0FBECDBF809167
:100CE000730181FD17C01ED62091860130918701C6
:100CF0004091880150918901AED6DC01CB0185314C
:100D00009105A105B10588F18091730182608093FE
:100D100073012BC08091730181FF27C08BE090E0AD
:100D200030D9182F882309F1FDD520918601309103
:100D3000870140918801509189018DD66B017C011A
:100D4000812F90E068EE73E0A8D8AA2797FDA095C0
:100D5000BA2FC816D906EA06FB0638F000B605FE1B
:100D600002C081E001C08FEF3ED68091730180FF09
:100D700045C0F894809173018E7F809373018091B8
:100D8000D10090E069E070E088D8FC01EA5AFE4F9B
:100D900040814983FE01339620E030E011C080910C
:100DA000D10090E069E070E078D8DC01AA5ABE4F2B
:100DB000A20FB31F12968C91129781932F5F3F4F12
:100DC000241768F37894CE0101964BD28823B1F0B2
:100DD000CE010196C1D1898587FD05C0809173013F
:100DE0008260809373018091730181FF04C0CE0102
:100DF00001966ADE03C0CE010196F9DE29960FB690
:100E0000F894DEBF0FBECDBFDF91CF911F91FF9051
:100E1000EF90DF90CF90089580E395E79BBD8ABD6A
:100E200082EC8EBD8CB182628CB984E081B987E49A
:100E300088B908951F920F920FB60F9211242F9325
:100E40003F934F935F936F937F938F939F93AF9352
:100E5000BF93CF93DF93EF93FF938091CC0082FFFA
:100E600003C0C19ADFE701C0D1E08EE090E089D8ED
:100E7000C82FC17080919101882321F4809197003F
:100E800080939101459B04C0CC0F8D2F819501C0AB
:100E90008D2FB6D58DE090E074D8282F30E02370E8
:100EA0003070220F331F220F331F8C2F822B60E0F4
:100EB00055D28CB59DB588519C4F9BBD8ABDFF9185
:100EC000EF91DF91CF91BF91AF919F918F917F91E2
:100ED0006F915F914F913F912F910F900FBE0F90A7
:100EE0001F9018951F920F920FB60F9211240F9317
:100EF0001F932F933F934F935F936F937F938F93A2
:100F00009F93AF93BF93CF93DF93EF93FF9304B57A
:100F100015B58EB590E489278EBD8CB59DB5805DE5
:100F20009A489BBD8ABD80919101882331F08091C0
:100F3000910180937D0110929101C0918D01D0E0CB
:100F400060918E0170918F01C80177D5CC0FDD1FA4
:100F5000C05ADF4F9983888310938F0100938E01CD
:100F600080918D0190E001968170907080938D0149
:100F700090919001981709F041C020916000309144
:100F80006100A901445350404D305105B8F44091DF
:100F9000620050916300241B350B37FF03C030956E
:100FA00021953F4F2730310514F481E019C04A558F
:100FB000504086E2473B580708F519C02A55304093
:100FC00086E2273B3807D0F420916200309163001D
:100FD000A9014A55504086E2473B580718F480E083
:100FE0007BDC0CC0245330402D30310538F4892F80
:100FF00090E001968170907080939001FF91EF9145
:10100000DF91CF91BF91AF919F918F917F916F9120
:101010005F914F913F912F911F910F910F900FBEB4
:101020000F901F901895FC01128213821482158272
:1010300016821182108210860895FC01DC01A60F31
:10104000B11D12968C91129790E08C709070883040
:10105000910561F08C30910531F084309105A1F457
:10106000808580620DC0808580640AC08085982F4D
:101070009160908714969C91149794FF03C08164AB
:1010800080870895816280870895DC01FB011182C9
:10109000108212964C911297842F81508E3FA0F0AF
:1010A0002091D200822F90E08F779070009719F0F6
:1010B0002083118206C08091A2009091A3009183A9
:1010C0008083809171010895842F90E09C01207CA1
:1010D0003070203C310591F4483EA0F48F7390703D
:1010E000982F88279183808313962C91139730E053
:1010F000282B392B3183208381E00895408311828E
:1011000080E0089580E00895FC011086828190E0DF
:101110009C012077307020373105E9F420E82087E2
:101120002081243031F482E88087CF0160E085DFC0
:101130000895233081F424E820879C0128703070C2
:1011400083FF04C02130310531F403C084EA808775
:10115000089584EC80870895CF93DF93EC0118867F
:10116000D3DF8091730181FD04C08885882309F055
:1011700075C081E089838A81982F907C903C29F406
:10118000883E18F482E0898304C08F3F11F41886EA
:1011900065C08981FE01E80FF11D2281822F8295B1
:1011A00086958770843048F4823008F041C08823E7
:1011B00069F0813009F052C032C0853009F441C075
:1011C0008530E8F1873009F049C041C0822F90E0B6
:1011D000AC014071507024FF04C040315105F1F55D
:1011E0000EC0269530E02770307021153105B1F51D
:1011F00080FF02C08FE901C08EE988872FC0288157
:10120000243060F18F7090708230910521F083302E
:10121000910521F502C08EE0F0CF8FE0EECF2F7167
:101220002F31E1F493819F77913039F383E0E5CF5B
:101230002F70213011F481E0E0CF82E0DECF85E035
:10124000DCCF24FF02C086E0D8CF87E0D6CF24FDD4
:1012500005C080E18887CE0161E0EFDEDF91CF91AC
:101260000895FC0120812330D0F070E060E030E090
:101270002150304006C0480F591FFA0142816427AF
:101280007F5F472F50E042175307ACF3280F391FF9
:1012900081E0F9019281691719F080E0089580E0FA
:1012A0000895FC018085823071F48181E80FF11D81
:1012B000228130E0F901EF71F070EC59FF4F80812D
:1012C00025FD32C015C08330A9F480818430E8F157
:1012D0008181E80FF11D2381822F90E08F7790703C
:1012E000009719F0822F8F7701C081E027FD1CC085
:1012F00081951AC0813099F48081833039F48181DD
:10130000E80FF11D828185FF0EC00BC0843049F4C7
:101310008181E80FF11D838187FF05C002C080E055
:1013200003C081E001C08FEF9091CC0090FD0BC015
:101330009091D200292F30E02F77307021153105A0
:1013400029F097FD03C08195089580E008958AB340
:1013500080668ABB8BB38F798BBB0895FF920F9306
:101360001F93CF93DF93662309F040C0C1E2D0E022
:10137000082F10E0CE018197980102C0359527957E
:101380008A95E2F720FF08C0F090B300CE01F9D5AE
:101390008F298093B30008C0CE01F3D5809590913A
:1013A000B30098239093B3002196C632D10511F76C
:1013B00085E0159507958A95E1F786E290E000FFB4
:1013C0000AC0DFD5880F880F880F9091B300892B52
:1013D0008093B30035C0D5D5880F880F880F8095CE
:1013E0009091B30098239093B3002AC0613041F5E7
:1013F000C7E2D0E0082F10E0CE018797980102C025
:10140000359527958A95E2F720FF0BC0CE01B9D517
:10141000880F880F880F9091B300892B8093B300B9
:101420000BC0CE01AED5880F880F880F80959091A4
:10143000B30098239093B3002196CB32D105E1F607
:10144000DF91CF911F910F91FF9008952F923F92BE
:101450004F925F926F927F928F929F92AF92BF92C4
:10146000CF92DF92EF92FF920F931F93CF93DF9370
:1014700000D000D000D0CDB7DEB754D24B015C0114
:1014800048EB242E40E0342E24EA30E03C832B83CA
:1014900056EAC52E50E0D52EE2E94E2EE1E05E2E52
:1014A0008DE691E09A83898380E090E0F1E06F2EF1
:1014B000712C9E838D835091B300252F30E00D80D9
:1014C00002C0359527950A94E2F73FE6E32E31E016
:1014D000F32EAD81BE81EA0EFB1E20FFC0C06091DD
:1014E0009700161624F434E040E181E003C038E0B0
:1014F00040E282E0E981FA8120818223F1F0C30198
:101500000D8002C0880F991F0A94E2F7852B809303
:10151000B30067FD6195422321F4232339F0613044
:1015200029F4ED81FE81E855FF4F04C0ED81FE8175
:10153000E056FF4F008110E002C000E010E0ED81B6
:10154000FE81E258FE4F2081E22FF0E0EF77F0704D
:10155000309701F14091B30050E08D819E81029659
:1015600002C0559547958A95E2F740FD02C027FDD8
:1015700011C0EE0FFF1FEE57FF4FD6012C91808157
:101580009181820F911DFDD490E00196B80185D420
:10159000092F10E0F70180819801281B31092D3DAA
:1015A00031050CF1A981BA818C9186FF1CC0209174
:1015B0009A01822F90E00D8002C0959587950A943C
:1015C000E2F780FD10C0F20180829182A282B38294
:1015D000C3010D8002C0880F991F0A94E2F7822B85
:1015E00080939A014BC080919A0190E00D8002C0D7
:1015F000959587950A94E2F780FF2EC0D2012D9130
:101600003D914D915C91C501B40125D2DC01CB0126
:101610008A309105A105B10550F0F70180818F5FF7
:101620008083D2018D929D92AD92BC921397F70167
:10163000808190E08017910708F10083C3010D803D
:1016400002C0880F991F0A94E2F7809590919A0141
:10165000982390939A0112C0D7010C930FC0C30135
:101660000D8002C0880F991F0A94E2F7809590912F
:101670009A01982390939A01F7011082D1012D913C
:101680003D914D915C91C501B401E5D1AB01BC0127
:10169000EB81FC818191FC83EB8390E0A0E0B0E0E2
:1016A000481759076A077B0760F0D6018C918F5F56
:1016B0008C93803209F41C92F10180829182A28283
:1016C000B3822D813E812F5F3F4F3E832D8384E087
:1016D00090E0280E391E0894C11CD11C480E591EDA
:1016E000A981BA811196BA83A9832230310509F004
:1016F000E2CE26960FB6F894DEBF0FBECDBFDF91C7
:10170000CF911F910F91FF90EF90DF90CF90BF90FE
:10171000AF909F908F907F906F905F904F903F9091
:101720002F9008950F931F93CF93DF93FC018B01AC
:10173000009709F44FC0861B970B20919C013091B4
:101740009D01820F931F90939D0180939C0124E043
:101750008130920724F42CEF8030920734F480E03B
:1017600094E090939D0180939C0180919C019091C5
:101770009D0160919C0070919D008FD360E071E0AD
:10178000B7D3EB018091D200882329F060917501D5
:101790007091760104C060917B0170917C01CF0152
:1017A0007CD3292F30E0C901801B910B6091AC00E4
:1017B0007091AD0072D360E071E09AD36C0F7D1F21
:1017C0006E0F7F1F77FD06C06F3F710509F024F48F
:1017D000862F03C080E001C08FEFDF91CF911F9172
:1017E0000F910895BA9AD79AB99AC19A81E280BFA7
:1017F0008BE390E0C6D3882319F080B7826080BF66
:1018000081E083BF12BE16BE1CBE99B7916099BF1E
:101810000B9A96B19D6896B91C9A93E097B98093FC
:101820007D018093970083E980939B0108951F9227
:101830000F920FB60F9211242F938F939F93AF9314
:10184000BF9380919E0090919F00809690939F00FF
:1018500080939E008091680190916901A0916A0136
:10186000B0916B018096A11DB11D8093680190938A
:101870006901A0936A01B0936B0180919E009091E1
:101880009F0023E0883E9207E8F0809177019091D5
:101890007801A0917901B0917A010196A11DB11D45
:1018A0008093770190937801A0937901B0937A01A6
:1018B00080919E0090919F00885E934090939F003E
:1018C00080939E008091B200982F9F5F9093B2000A
:1018D000882381F480916F018093AA008091700128
:1018E0008093AB008091AA008111DD9A8091AB00BA
:1018F0008111DE9A9091AA008091B200981709F4A4
:10190000DD989091AB008091B200981709F4DE98B1
:10191000BF91AF919F918F912F910F900FBE0F901C
:101920001F9018950F931F93F894009177011091D1
:1019300078012091790130917A017894B801C90138
:101940001F910F9108951F920F920FB60F921124BD
:101950002F933F934F935F936F937F938F939F93B7
:10196000AF93BF93EF93FF9385B120919B0190E0DC
:10197000821B91096CE074E090D2892F990F990B2A
:1019800080939F01CFDFDC01CB018093AE00909369
:10199000AF00A093B000B093B10081E080939E01AE
:1019A000FF91EF91BF91AF919F918F917F916F9137
:1019B0005F914F913F912F910F900FBE0F901F900D
:1019C00018950F931F938FB7F894009168011091A9
:1019D000690120916A0130916B018FBFB801C90183
:1019E0001F910F910895C19887FD02C081E001C049
:1019F0008FEF80937D018093970016BE1CBE0895E3
:101A000080937D010895482F282F27FD21952230AE
:101A100068F02D3168F430E0C901019769E070E0A9
:101A20003CD29C0135952795822F03C081E001C0EF
:101A30008FE747FD8195E4DF08958617970728F41F
:101A400060957095680F791F04C09C01261B370BA9
:101A5000B901CB0108950F931F93DC01CB018901DC
:101A60009A0180179107A207B30748F400951095D3
:101A700020953095080F191F2A1F3B1F08C0AC0185
:101A8000BD01401B510B620B730B8A019B01B80116
:101A9000C9011F910F9108958F929F92AF92BF92AB
:101AA000CF92DF92EF92FF920F931F93CF93DF932A
:101AB000C0919700C7FDC19511E080917401C817CE
:101AC00008F010E02FDF2091AE003091AF00409180
:101AD000B0005091B100BFDFAB01BC018091720139
:101AE00090E0A0E0B0E0481759076A077B0758F07C
:101AF000112349F0C19A80B7806A80BF8FEF86BFFB
:101B00008CBF369AA8C180919E0121E030E090916F
:101B10007401C91710F420E030E090E0822B932B81
:101B2000009709F498C14DDF6B017C012091800181
:101B30003091810140918201509183018CDF4B01F2
:101B40005C01C0928001D0928101E0928201F0920A
:101B5000830180917D0190919700891709F4ABC0B2
:101B6000C130C9F419161CF418162CF014C09923AE
:101B700091F087FF10C081E490E003D2882359F0F0
:101B8000D1DEDC01CB018093D3009093D400A093ED
:101B9000D500B093D600C19AC0919700C0907D0146
:101BA000CC161CF4C7FF0CC002C01C164CF40091EC
:101BB00098001091990020919A0030919B0008C0E4
:101BC0000091B4001091B5002091B6003091B7009B
:101BD000011511052105310579F4CF3F1CF4C7FC2F
:101BE00063C041C0C2300CF45FC01C140CF45CC074
:101BF0008FEF8093970067C08091CD009091CE00C9
:101C0000A091CF00B091D000880D991DAA1DBB1DD9
:101C10008093CD009093CE00A093CF00B093D000DE
:101C2000BC01CD01A901980176D189019A01011564
:101C300011052105310509F446C01092CD0010921E
:101C4000CE001092CF001092D0008C2F992787FDE4
:101C50009095202F30E0CC15ACF4C7FF06C0280FBC
:101C6000391F37FD02C081E0C4CF800F911D2C2D9C
:101C7000332727FD309582179307B4F40C0F009398
:101C8000970021C01C163CF4AC01421B530B1416E8
:101C900015060CF0ADCF801B91092C2D332727FDA5
:101CA0003095281739071CF0C09297000CC0C01B54
:101CB000C093970008C01092CD001092CE001092F1
:101CC000CF001092D00010B78091C4009091C50051
:101CD000A091C600B091C7000097A105B105D9F049
:101CE00021DE2091C4003091C5004091C600509182
:101CF000C700B1DEDC01CB0186309105A105B1053D
:101D000008F4A4C01092C4001092C5001092C6003E
:101D10001092C7009BC0C090D300D090D400E09038
:101D2000D500F090D600C114D104E104F104D9F03B
:101D300081E490E026D1C82FF5DD9B01AC01C701FD
:101D4000B60189DEDC01CB0186309105A105B10524
:101D500008F47EC01092D3001092D4001092D500E7
:101D60001092D60075C0C0909700EC2DFF27E7FDBC
:101D7000F095C7FE27C01F7D1068E095F095E952E9
:101D8000FF4FC081D0E02091C8003091C900409140
:101D9000CA005091CB00211531054105510509F4C8
:101DA00040C0BE01882777FD8095982F88D0DC0140
:101DB000CB01F7E0B695A79597958795FA95D1F75A
:101DC000EC0125C01F771062EA52FF4FC081D0E0BE
:101DD0002091C0003091C1004091C2005091C300D9
:101DE0002115310541055105E1F0BE01882777FD38
:101DF0008095982F64D0DC01CB01E7E0B695A795DC
:101E000097958795EA95D1F7EC0197FD05C0CF3FEF
:101E1000D10509F024F405C0C0E0D0E002C0CFEF46
:101E2000D0E08091B30084FF02C0C695D0E0C7FC2B
:101E3000C19480917401C81658F460919F01CE013D
:101E400070E070DCC82F10929E0102C0CFEFD0E08E
:101E5000C6BFCCBF10BFDF91CF911F910F91FF90F4
:101E6000EF90DF90CF90BF90AF909F908F900895AC
:101E70008091730181FF05C08FE290E082D08823BA
:101E800059F050DDDC01CB018093C4009093C50074
:101E9000A093C600B093C70008955527002480FF83
:101EA00002C0060E571F660F771F6115710521F0DE
:101EB00096958795009799F7952F802D0895FF2780
:101EC000EE27BB27AA2760FF04C0A20FB31FE41FA1
:101ED000F51F220F331F441F551F96958795779541
:101EE000679589F70097760771F7CF01BD010895CF
:101EF00097FB092E07260AD077FD04D02ED006D0F6
:101F000000201AF4709561957F4F0895F6F790952B
:101F100081959F4F0895A1E21A2EAA1BBB1BFD01BC
:101F20000DC0AA1FBB1FEE1FFF1FA217B307E407B8
:101F3000F50720F0A21BB30BE40BF50B661F771F10
:101F4000881F991F1A9469F76095709580959095F0
:101F50009B01AC01BD01CF010895AA1BBB1B51E140
:101F600007C0AA1FBB1FA617B70710F0A61BB70B09
:101F7000881F991F5A95A9F780959095BC01CD01AE
:101F80000895E199FECF9FBB8EBBE09A99278DB350
:101F90000895262FE199FECF9FBB8EBBE09A019753
:101FA0000DB2021639F01CBA2DBB0FB6F894E29AA6
:0A1FB000E19A0FBE0895F894FFCFE8
:101FBA00FFFFFFFF0101020406080A0C0E101214AB
:101FCA0016181A1C0101030507090B0D0F11131529
:101FDA0017191B1D70009000B000D000F00010010E
:061FEA00300150017001FE
:00000001FF
