:10000000E5C006C105C104C103C13AC7E7C600C1C6
:10001000FFC0FEC0FDC09BCBFBC024CCF9C0F8C024
:10002000F7C064C56FC566C5AEC574C584C5ABC52C
:10003000AAC5A9C5A8C5A7C5A6C5A5C59CC59BC574
:1000400094C593C5A0C59FC59EC59DC59CC59BC5B0
:100050009AC599C598C597C596C595C57CC57AC5F5
:100060000000000000000000000000000000000090
:1000700000000000000000000000000024FF10004D
:100080000000000000000000000000000000000070
:1000900000000000000024FF1000000024FF1000FA
:1000A00098B0C6D9E9F5FCFFFCF5E9D9C6B0987F50
:1000B000664E38251509020002091525384E667F5F
:1000C000E8A5F714D61471BFB968D38F7C454E35B7
:1000D000AD22C52A6713601435253E9C389EB16E4B
:1000E0000000000000007FFFFFFFFFFFFFFFFFFF9A
:1000F000FFFFFFFFFFFFBF5F2E170B050000000093
:10010000FFFFFFFFFFFFBF5F2E170B050000000082
:100110000000000000007FFFFFFFFFFFFFFFFFFF69
:100120002020202D404040404B80FFFFBF80645086
:10013000506480BFFFFF804B404040402D20202076
:100140002020202020202020404040404B6480FF81
:10015000FF80644B40404040202020202020202071
:1001600000030100000000055B0000000200030026
:100170000000000000000000000000000006000079
:1001800000000304081004081020400000000001D3
:1001900001FFFF003E02FFFF003E0101643218FF35
:1001A000980000010A131D263039424C555F6871D2
:1001B0007B848E97A0AAB3BDC6CFD9E2ECF5FF0031
:1001C00000000000000000000000000011241FBE1D
:1001D000CFE5D2E0DEBFCDBF14BE88E10FB6F89404
:1001E00081BD11BC0FBE10E0A0E6B0E0E8EBFEE17F
:1001F00002C005900D92A639B107D9F721E0A6E912
:10020000B0E001C01D92A03AB207E1F702D052CE91
:10021000F7CE8FEF91E034DE81BFF89488B383612D
:1002200088BB88B3896088BB4CD2CAD568DA22D82B
:10023000789410D5BDDB9FD8FCCF66E08DE190E0CF
:1002400027DE60E08FE190E023DE60E080E290E076
:100250001FDE60E083E190E01BCE80E390E010DEE3
:1002600080936D0181E390E00BDE8093A00082E338
:1002700090E006DE8093A80083E390E001DE282F63
:1002800030E02F77293031050CF402C08078886087
:1002900080937E0184E390E0F3DD8093A40085E306
:1002A00090E0EEDD80936E0186E390E0E9DD8093DF
:1002B000A10087E390E0E4DD8093A90088E390E06B
:1002C000DFDD282F30E02F77293031050CF402C014
:1002D0008078886080937F0189E390E0D1DD80930E
:1002E000A50008951F93CF93DF93C82F162F8B3649
:1002F000B0F48FE090E0C4DDD82F80E190E0C0DD65
:10030000D81721F0882311F0D11109C08C2F90E06B
:10031000B7DD811304C0DF91CF911F912ACDDF910A
:10032000CF911F910895CF93DF9300D0CDB7DEB763
:1003300090E04A836983A4DD90E021E030E04A81C7
:10034000042E02C0220F331F0A94E2F78223932364
:10035000698170E002C0660F771F4A95E2F7861741
:10036000970729F40F900F90DF91CF9102CD0F9056
:100370000F90DF91CF9108952F923F924F925F920D
:100380006F927F928F929F92AF92BF92CF92DF92A5
:10039000EF92FF920F931F93CF93DF938DE190E045
:1003A0006FDDC82F8093CC0083E190E069DD8093FE
:1003B000D200C5FD0DC081E090E062DD90E0909339
:1003C000A3008093A20010927101892BB1F01BC091
:1003D00081E190E055DDD82F82E190E051DD3D2FA5
:1003E0003F7320E0282B3093A3002093A20081E0EC
:1003F00080937101232BF9F206C083E090E0909383
:10040000A3008093A20083E090E03ADD682F70E0C3
:1004100080E090E027EC3BE140E050E0CFDC6093EF
:1004200098007093990080939A0090939B0084E0C9
:1004300090E026DD682F70E080E090E027EC3BE163
:1004400040E050E0BBDC6093B4007093B500809353
:10045000B6009093B70082E490E012DD482F50E0A0
:1004600060E070E04093C0005093C1006093C20010
:100470007093C3008FE590E003DD482F50E060E00B
:1004800070E04093C8005093C9006093CA00709315
:10049000CB00C4FF61C008ED10E0C0E8D1E0CE01A0
:1004A0006EE070E0A4DC2B01662457FC6094762C8F
:1004B000D301C20167E0B695A795979587956A9590
:1004C000D1F7D82E282E312CC1018D5B9F4FD8DC5F
:1004D000882E912CA12CB12C7DE5C72ECD1440F097
:1004E000C1018C5B9F4FCCDC90E0A0E0B0E005C088
:1004F000D501C4010996A11DB11DBC01CD0168192A
:1005000079098A099B0991013695322F222737955F
:100510002795442737FD4095542F73016201C21A75
:10052000D30AE40AF50AA701960148DC57E096953C
:100530008795779567955A95D1F7680D791D8A1D2E
:100540009B1DF80161938F01C058DE4FC038FEEB50
:10055000DF0709F0A4CF72C082E090E091DCB82EF2
:1005600085E090E08DDCF82E86E090E089DCE82ED6
:10057000CC24C394CF1410F0FF24FA94DD24D39438
:10058000DE1438F08F2D90E08B0D911D9595879599
:10059000E82EB092D800CE2DD0E0BE016B197109C3
:1005A000882777FD8095982F22E430E040E050E0E6
:1005B00005DCAB01BC01E9EDF0E08A019B01D9014A
:1005C000C801072E7CE0B695A795979587957A95F3
:1005D000D1F7702D8B0D8193040F151F261F371F28
:1005E00081E0E631F80759F7E09216016F2D70E0CF
:1005F0006C1B7D0B882777FD8095982F21E430E0D8
:1006000040E050E0DBDBAB01BC01E7E1F1E08A0157
:100610009B01D901C801CCE0B695A7959795879520
:10062000CA95D1F78E0D8193040F151F261F371F12
:1006300081E0E535F80769F7F09255018AE090E02E
:100640001FDC80937401882349F18CE390E018DC6F
:10065000809372018DE390E013DC90E0019690931B
:10066000AD008093AC008EE390E00ADC90E0019650
:1006700090939D0080939C008FE390E001DC90E0DC
:10068000019690937C0180937B0180E490E0F8DBFD
:1006900090E001969093760180937501DF91CF9160
:1006A0001F910F91FF90EF90DF90CF90BF90AF9090
:1006B0009F908F907F906F905F904F903F902F9082
:1006C000CCCD0F931F93CF93DF9380E090E0D8DBE6
:1006D0008E3F81F08F3F09F03CC003EA11E0C3E494
:1006E000D0E0F80161918F01CE01D2DB2196CF35A8
:1006F000D105B9F7C0E0D0E0FE01E05AFE4F6491A9
:10070000CE01C6DB2196C334D105B1F7CFE5D0E0E9
:10071000FE01E05AFE4F6491CE01BADB2196CB3642
:10072000D105B1F760E08BE690E0B2DB61E08CE6EA
:1007300090E0AEDBC0E0D0E0FE01E05AFF4F6491F4
:10074000CE0180599F4FA4DB2196C032F1E0DF0734
:1007500099F7DF91CF911F910F910ECE0F931F93B9
:10076000CF93DF93082F162F80E190E089DBC82F0D
:10077000882341F08FE090E083DBC81719F00F3039
:1007800009F065C0C02FD0E0C431D10509F45FC0C5
:10079000CA31D10509F45BC0CC31D10509F457C089
:1007A000013209F454C0CE0180569109099708F42A
:1007B0004EC0C730D10509F44AC0CA33D10509F487
:1007C00046C0CB36D10508F042C0C830D10561F42F
:1007D000183011F46FEF03C01930C9F56EEF80E0E7
:1007E00090E056DB6EDF2EC0CD31D10519F1C1305E
:1007F000D10561F411165CF56091CC006F7D8DE13F
:1008000090E046DB60E083E190E00DC0C231D105AD
:1008100061F48BE690E034DB811102C01123B9F062
:10082000682F81E190E034DB05C0C131D10511F4BE
:10083000CBE6D0E0612FCE012BDBCE0121DB811393
:1008400006C09ADDDF91CF911F910F9192CADF917F
:10085000CF911F910F9108951F93CF93DF9300D0F5
:10086000CDB7DEB7182F90E04A83698309DB698131
:100870004A81662349F061E070E0042E01C0660FF2
:100880000A94EAF7682B08C061E070E001C0660FC7
:100890004A95EAF760956823812F0F900F90DF91BA
:1008A000CF911F915BCFCF9390918C01911115C087
:1008B00081110DC080918B018C3008F4B7C010926B
:1008C000850110928A0181E080938C01AFC08091F4
:1008D0008B018F5F80938B01ABC090918501953028
:1008E00051F480916C0190E069E070E055DA8A5A29
:1008F0009E4F64D35CC090918A01983008F45FC029
:10090000909185019F5F90938501813009F052C0DD
:10091000909185019330E8F180938B0180916C0177
:100920002091850190E069E070E036DA8A5A9E4FA6
:10093000DC012C9380916C018093D1008091730134
:1009400081608093730190916C0181E0911180E04E
:1009500080936C0180916C0190E069E070E01CDA9A
:100960008A5A9E4FFC01108220E030E080916C0199
:1009700090E069E070E010DA8A5A9E4F820F931F70
:10098000DC0112961C922F5F3F4F2630310571F724
:100990000EC080916C0190E069E070E0FDD98A5A48
:1009A0009E4F0CD380918B018F5F80938B011092AF
:1009B0008C013EC010928B0110928A0139C0909137
:1009C0008A019F5F90938A01813081F580918B012C
:1009D0008F5F80938B01C0916C01A0918501B0E085
:1009E0008C2F90E069E070E0D7D9FC01EA5AFE4F05
:1009F000EA0FFB1FE28180918A0148E050E0481B2A
:100A0000510921E030E0042E01C0220F0A94EAF7D8
:100A1000E22B8C2F90E069E070E0BED98A5A9E4F9D
:100A20008A0F9B1FDC011296EC9302C010928B017F
:100A3000CF910895DC01FC01E60FF11D82818370E6
:100A4000C1F483818F5F18969C91448190FF09C007
:100A500043FB662760F9477096FDFECE95FF09C0FF
:100A600062CC96FF02C0642F79CE95FF02C0642F3E
:100A700039CC08950F931F93CF93DF9300D0CDB758
:100A8000DEB78C01BE016F5F7F4FC3D2E091D20011
:100A9000EF7729813A81EE2339F04E2F50E0241769
:100AA000350711F4882371F04091A2005091A30002
:100AB0002417350709F070C09091710189136CC03B
:100AC00092E001C091E0D80118968C918093840146
:100AD000482F4F7150E0415051094F31510508F0F6
:100AE00052C04F5E5F4F4F935F930895C80178D314
:100AF00007D749C0EE2311F090FF45C0C80170D35D
:100B000010D741C0EE2311F090FF3DC0C80168D35B
:100B10000BD739C0F8018181E80FF11D2281822FA6
:100B20008F70880F880F24FD836041E0913009F0B9
:100B300040E060E00DC041E0913009F040E0D801B4
:100B400011968C91F801E80FF11D828161E08F70A0
:100B500098D319C072DB28E088E190E00FB6F894D2
:100B6000A89581BD0FBE21BDFFCF923061F461E039
:100B7000C80160DF08C0F8018181E80FF11D6381C1
:100B8000606883E1EBDD5DD6609386017093870139
:100B900080938801909389010F900F90DF91CF91FE
:100BA0001F910F9108951F93CF93DF93EC01188548
:100BB0008091840118133EC08CE690E061D9912F9A
:100BC0009F70923070F1943018F0943051F504C059
:100BD00060E0CE012FDF25C02A81922F97709530DB
:100BE00079F118F4943029F429C0963041F0973007
:100BF00049F0880F880F890F835099F006C0813023
:100C000081F420C0813069F41FC06B8123FF08C0CC
:100C10008C3621F48CE690E03BD903C09FDD01C007
:100C200061DB0FD660938601709387018093880102
:100C30009093890188858093840108C08DE1E5CF78
:100C40008CE6E3CF87E0E1CF88E0DFCFDF91CF9183
:100C50001F910895FF920F931F93CF93DF93CDB70A
:100C6000DEB72D970FB6F894DEBF0FBECDBF8091D3
:100C7000730181FD1DC02091860130918701409153
:100C80008801509189012A873B874C875D87D9D598
:100C90002A853B854C855D8564D665317105810566
:100CA0009105D0F18091730182608093730134C00B
:100CB0008091730181FF30C08BE090E0E1D8F82E85
:100CC000882351F12091860130918701409188015C
:100CD000509189012A873B874C875D87B2D52A8549
:100CE0003B854C855D853DD68B019C018F2D90E029
:100CF00068EE73E051D8AA2797FDA095BA2F081780
:100D000019072A073B0740F080919700181614F442
:100D100081E001C08FEFF4D58091730180FF44C062
:100D2000F894809173018E7F809373018091D1003C
:100D300090E069E070E030D88A5A9E4FDC014C9117
:100D40004983FE01339620E030E010C08091D1004D
:100D500090E069E070E020D88A5A9E4F820F931F7E
:100D6000DC0112968C9181932F5F3F4F241770F313
:100D70007894CE01019618D28823B1F0CE01019665
:100D80009AD1898587FD05C0809173018260809327
:100D900073018091730181FF04C0CE0101966ADE68
:100DA00003C0CE010196FFDE2D960FB6F894DEBF8C
:100DB0000FBECDBFDF91CF911F910F91FF9008958E
:100DC00080E395E79BBD8ABD82EC8EBD8CB18262CB
:100DD0008CB986E081B987E488B908951F920F9293
:100DE0000FB60F9211242F933F934F935F936F93FE
:100DF0007F938F939F93AF93BF93CF93DF93EF93A3
:100E0000FF938091CC0082FF02C0DEE701C0D1E0F9
:100E10008EE090E035D8C82FC1708091910181118A
:100E200004C08091970080939101459B04C0CC0F32
:100E30008D2F819501C08D2F74D58DE090E020D845
:100E40008370880F880F40E060E08C2B1AD28CB53D
:100E50009DB588519C4F9BBD8ABDFF91EF91DF915D
:100E6000CF91BF91AF919F918F917F916F915F9142
:100E70004F913F912F910F900FBE0F901F9018959B
:100E80001F920F920FB60F9211240F931F932F935F
:100E90003F934F935F936F937F938F939F93AF9302
:100EA000BF93CF93DF93EF93FF93C4B5D5B58EB5C2
:100EB00090E489278EBD8CB59DB5805D9A489BBD19
:100EC0008ABD80919101882331F0809191018093B6
:100ED0007D011092910100918D0110E060918E01D1
:100EE00070918F01CE012FD5F801EE0FFF1FE05A50
:100EF000FF4F91838083D0938F01C0938E018091A7
:100F00008D0190E001968170992780938D019091D9
:100F1000900198133EC02091600030916100A901BA
:100F2000445351094D305105B0F440916200509145
:100F30006300241B350B37FF03C031952195310920
:100F40002730310514F481E016C04A555109473B5A
:100F50005642F8F417C02A553109273B3642C8F4E7
:100F60002091620030916300A9014A555109473B25
:100F7000564218F480E097DC0CC0245331092D3020
:100F8000310538F4892F90E001968170992780937C
:100F90009001FF91EF91DF91CF91BF91AF919F9120
:100FA0008F917F916F915F914F913F912F911F9101
:100FB0000F910F900FBE0F901F901895FC01128299
:100FC000138214821582168211821082108608956F
:100FD000FC01DC01A60FB11D12968C9112978C704A
:100FE000883051F08C3029F0843091F48085806213
:100FF0000EC0808580640BC08085982F916090879B
:1010000014969C9194FF02C0816401C08162808724
:101010000895FB0111821082DC0112964C91242F5D
:1010200021502E3F88F08091D200982F9F7719F0A1
:101030008083118206C08091A2009091A3009183C9
:101040008083809171010895242F207C203C79F4C5
:10105000483E78F4342F3F7320E031832083DC0155
:1010600013968C91282B3183208381E0089540834F
:10107000118280E00895FC0110868281982F90777C
:101080009037C1F490E890879081943029F482E8F9
:10109000808760E0CF019CCF933061F4982F9870E7
:1010A00083FF04C0913021F084E803C084EA01C0CA
:1010B00084EC80870895CF93DF93EC011886DBDF03
:1010C0008091730181FD03C0888581116AC081E030
:1010D00089838A81982F907C903C29F4883E18F46B
:1010E00082E0898304C08F3F11F418865AC0898139
:1010F000FE01E80FF11D8281982F929596959770C9
:10110000943040F49230A8F5992359F0913009F0C9
:1011100048C025C09530A9F190F1973009F041C041
:1011200037C0982F907184FF03C09031D1F50AC069
:10113000982F96959770A9F580FF02C08FE926C079
:101140008EE924C09881943060F18F70823019F05C
:10115000833039F502C08EE019C08FE017C08F715F
:101160008F31F9F483818F77813009F40FC083E0E8
:101170000DC08F70813009F409C082E007C085E09E
:1011800005C084FF02C086E001C087E0888709C0EF
:1011900084FD07C080E1888761E0CE01DF91CF91B7
:1011A00017CFDF91CF910895FC0120812330B0F05B
:1011B00070E060E030E02150310905C0E40FF51F18
:1011C000428164277F5F472F50E0FC01421753079D
:1011D000ACF3E20FF31F81E09281691380E0089580
:1011E000FC018085823069F48181E80FF11D9281D4
:1011F000E92FEF71F0E0EC59FF4F808195FD2BC096
:101200000FC0833079F48081843090F18181E80FC0
:10121000F11D9381892F8F7709F481E097FD1BC021
:10122000819519C08130A1F48081833041F481819E
:10123000E80FF11D828185FF0DC081E00CC0843074
:10124000E1F78181E80FF11D838187FDF6CF02C0B0
:1012500080E001C08FEF9091CC0090FD819590913E
:10126000D200292F2F7729F097FF03C08195089589
:1012700080E008958AB380668ABB8BB38F798BBB7D
:1012800008958F929F92AF92BF92CF92DF92EF928A
:10129000FF920F931F93CF93DF931F92CDB7DEB7CB
:1012A000E82EF12C611103C00FE310E007C036E017
:1012B000EE0CFF1C3A95E1F700EC13E08091D200B0
:1012C0008823E9F085E190E04983DAD5D82E86E1DC
:1012D00090E0D6D580FBAA24A0F8B12CAA0CBB1CA8
:1012E0008D2D90E0880F991F880F991FA82AB92A81
:1012F0004981411102C0A094B0940A211B21812C84
:10130000912CAA24A394B12C6501082C02C0CC0C0A
:10131000DD1C0A94E2F7C60180239123892BB1F0EA
:10132000C4018196ADD594E0981518F4880F880F04
:10133000880F96012E213F219091B300232B11F0AD
:10134000892B02C0809589238093B300EFEF8E1A1A
:101350009E0AFAE08F169104B9F60F90DF91CF91B3
:101360001F910F91FF90EF90DF90CF90BF90AF90C3
:101370009F908F9008952F923F924F925F926F921D
:101380007F928F929F92AF92BF92CF92DF92EF9215
:10139000FF920F931F93CF93DF9300D000D0CDB770
:1013A000DEB74FD22B013C0168EB862E60E0962E13
:1013B00024EA30E03A83298376EAE72E70E0F72EBC
:1013C000E2E9CE2EE1E0DE2E1C821B822224239451
:1013D000312C8091B30090E09C010B8002C03595C8
:1013E00027950A94E2F720FFC7C040919700141692
:1013F00024F424E030E151E003C028E030E252E080
:10140000EB81FC81E359FE4FB0805B2101F147FD88
:1014100041953B2181F42B2111F0413061F02B816A
:101420003C812C5F3F4FAC0102C0559547952A95F2
:10143000E2F740FF05C0EB81FC81E855FF4F04C097
:10144000EB81FC81E056FF4F008110E002C000E01C
:1014500010E0EB81FC81E258FE4F4081E42FEF77F2
:10146000F9F02B813C812E5F3F4F02C09595879507
:101470002A95E2F780FD02C047FD12C0F0E0EE0FB2
:10148000FF1FEE57FF4FD7012C9180819181820F72
:10149000911DF6D490E00196B8017ED4092F10E09A
:1014A000EB81FC81E159FE4F8081F801E81BF109D5
:1014B000ED3DF105FCF0B6FE1DC020919A01822F92
:1014C00090E00B8002C0959587950A94E2F780FD25
:1014D00011C0D6014D925D926D927C921397C1011D
:1014E0000B8002C0880F991F0A94E2F7822B809329
:1014F0009A0154C080919A0190E00B8002C09595AA
:1015000087950A94E2F74FE6A42E41E0B42EEB81D2
:10151000FC81AE0EBF1E80FF2CC0D6012D913D91E7
:101520004D915C91C301B2011CD26A3071058105F5
:10153000910550F0F50180818F5F8083D6014D9237
:101540005D926D927C921397F501808190E08017F7
:10155000910720F10083C1010B8002C0880F991F01
:101560000A94E2F7809590919A01982390939A01BA
:1015700015C0D5010C9312C0C1010B8002C0880FA9
:10158000991F0A94E2F7809590919A01982390937D
:101590009A01EB81FC81E159FE4F1082F401208118
:1015A000318142815381C301B201DBD1A981BA816A
:1015B0002D91BA83A983022F10E020E030E060175C
:1015C00071078207930768F0F70180818F5F80328F
:1015D00011F0808301C01082F40140825182628246
:1015E00073822B813C812F5F3F4F3C832B8334E000
:1015F000830E911C4FEFE41AF40A54E0C50ED11C7F
:101600008B819C81029709F0E4CE0F900F900F9090
:101610000F90DF91CF911F910F91FF90EF90DF908E
:10162000CF90BF90AF909F908F907F906F905F9082
:101630004F903F902F900895CF93DF93FC01DB01F3
:10164000009711F480E058C0861B970B20919C01F5
:1016500030919D01820F931F813024E092070CF09E
:1016600005C081152CEF92070CF002C080E094E0D9
:1016700090939D0180939C0180919C0190919D018C
:1016800060919C0070919D0087D39C0197FF02C0E0
:1016900021503F4FC32FDD27C7FDDA958091D2003F
:1016A000882329F0609175017091760104C06091E2
:1016B0007B0170917C01CF016FD3492F50E0CA01AB
:1016C0008A1B9B0B6091AC007091AD0065D39C01AF
:1016D00097FF02C021503F4F232F330F330B2C0FA6
:1016E0003D1F2E0F3F1F37FDADCF2F3F310509F0B6
:1016F00014F4822F01C08FEFDF91CF91089587B34B
:10170000866087BBC29AC298D79ADF9881E080BF73
:101710008BE390E0B5D3882319F080B7826080BF57
:1017200081E083BF12BE9FEF96BF99B7916099BFCA
:101730000B9A96B19D6896B91C9A93E097B98093DD
:101740007D018093970083E980939B0108951F9208
:101750000F920FB60F9211242F938F939F93AF93F5
:10176000BF9380919E0090919F00809690939F00E0
:1017700080939E008091680190916901A0916A0117
:10178000B0916B018096A11DB11D8093680190936B
:101790006901A0936A01B0936B0180919E009091C2
:1017A0009F00883E9340E8F0809177019091780106
:1017B000A0917901B0917A010196A11DB11D80938C
:1017C000770190937801A0937901B0937A01809189
:1017D0009E0090919F00885E934090939F0080931D
:1017E0009E008091B200982F9F5F9093B20081116C
:1017F00010C080916F018093AA0080917001809346
:10180000AB008091AA008111DD9A8091AB0081111B
:10181000DE9A9091AA008091B200981301C0DD98E1
:101820009091AB008091B200981301C0DE98BF91F7
:10183000AF919F918F912F910F900FBE0F901F909E
:1018400018950F931F93F8940091770110917801E8
:101850002091790130917A017894B801C9011F91E2
:101860000F9108951F920F920FB60F9211242F938C
:101870003F934F935F936F937F938F939F93AF9318
:10188000BF93EF93FF9385B120919B0190E0821B62
:1018900091096CE074E080D2892F990F990B8093A5
:1018A0009F01CFDF6093AE007093AF008093B000D4
:1018B0009093B10081E080939E01FF91EF91BF91E1
:1018C000AF919F918F917F916F915F914F913F91D8
:1018D0002F910F900FBE0F901F9018950F931F938D
:1018E0008FB7F894009168011091690120916A0105
:1018F00030916B018FBFB801C9011F910F910895FD
:1019000090B79F7790BF98B3966098BBDF9A87FD9A
:1019100002C081E001C08FEF80937D01809397002A
:10192000089580937D010895482F282F27FD219544
:10193000822F90E0019769E070E02ED2959587950F
:1019400047FD8195EECF8617970728F4609570952F
:10195000680F791F04C09C01261B370BB901CB010E
:101960000895CF92DF92EF92FF920F931F93621729
:1019700073078407950758F489019A01009510951B
:1019800020953095060F171F281F391F08C06B01BF
:101990007C01C21AD30AE40AF50A97018601B8014C
:1019A000C9011F910F91FF90EF90DF90CF900895A4
:1019B0008F929F92AF92BF92CF92DF92EF92FF925F
:1019C0000F931F93CF93DF9300D000D0CDB7DEB736
:1019D0001091970017FD119501E08091740118177F
:1019E00008F000E02091AE003091AF004091B000CF
:1019F0005091B10029833A834B835C8322DF298194
:101A00003A814B815C81ADDF20917201C22ED12CD5
:101A1000E12CF12C6C157D058E059F0570F00023DF
:101A200061F080B78F7780BF80B78F7780BF88B332
:101A3000866088BBDF9A369A8BC120919E0181E037
:101A400090E030917401131710F480E090E0822B45
:101A5000892B09F47DC142DF6B017C01209180015B
:101A60003091810140918201509183017ADF4B01D5
:101A70005C01C0928001D0928101E0928201F092DB
:101A8000830180917D0190919700891709F4A6C088
:101A90001130B9F419161CF418162CF012C0992341
:101AA00081F087FF0EC081E490E0EAD1882349F0FD
:101AB000C8DE6093D3007093D4008093D5009093D8
:101AC000D6001091970000917D010117A4F417FF33
:101AD00009C0209198003091990040919A0050914E
:101AE0009B000CC02091B4003091B5004091B6002D
:101AF0005091B70003C0111664F3F4CF21153105DE
:101B00004105510579F41F3F1CF407FD60C03DC03D
:101B100012300CF45CC010160CF459C08FEF809397
:101B2000970064C0C090CD00D090CE00E090CF0070
:101B3000F090D000C80CD91CEA1CFB1CC701B601F0
:101B400069D1211531054105510549F4C092CD00F7
:101B5000D092CE00E092CF00F092D00047C0109219
:101B6000CD001092CE001092CF001092D000812FA5
:101B7000992787FD9095422F50E01017B4F417FF76
:101B800006C0480F591F57FD02C081E0C8CF820F21
:101B9000911D402F552747FD5095841795070CF050
:101BA00016C0210F2093970021C011163CF4BC01F0
:101BB000641B750B161617060CF0B0CF821B91092B
:101BC000402F552747FD5095481759071CF00093A3
:101BD00097000CC0121B1093970008C01092CD0004
:101BE0001092CE001092CF001092D0002091C4002D
:101BF0003091C5004091C6005091C70021153105B4
:101C000041055105C9F029833A834B835C8319DE72
:101C100029813A814B815C81A4DE663071058105A2
:101C2000910508F48EC01092C4001092C500109265
:101C3000C6001092C70085C08091D3009091D40057
:101C4000A091D500B091D600892B8A2B8B2BF9F06F
:101C500081E490E015D1082FF4DD9B01AC01609187
:101C6000D3007091D4008091D5009091D60079DE98
:101C7000663071058105910508F465C01092D300A6
:101C80001092D4001092D5001092D6005CC08091C2
:101C90009700E82FFF27E7FDF09587FF10C0C19858
:101CA000DF9AE095F095E952FF4F60812091C800DE
:101CB0003091C9004091CA005091CB000DC0DF980F
:101CC000C19AEA52FF4F60812091C0003091C1005B
:101CD0004091C2005091C3002115310541055105C5
:101CE00019F4062F10E00CC070E080E090E066D0A0
:101CF00047E096958795779567954A95D1F78B013B
:101D00008091B30086FF02C0069510E08091970095
:101D100087FD819590917401891748F460919F0126
:101D200070E0C80189DC082F10929E010CC017FDDD
:101D300005C00F3F110509F024F405C000E010E0D4
:101D400002C00FEF10E0009506BF80B7806880BF2B
:101D50000F900F900F900F90DF91CF911F910F91E7
:101D6000FF90EF90DF90CF90BF90AF909F908F90BB
:101D700008958091730181FF05C08FE290E080D0CB
:101D8000882349F05EDD6093C4007093C5008093A2
:101D9000C6009093C70008955527002480FF02C015
:101DA000060E571F660F771F6115710521F0969576
:101DB0008795009799F7952F802D0895FF27EE2797
:101DC000BB27AA2760FF04C0A20FB31FE41FF51FA3
:101DD000220F331F441F551F96958795779567955A
:101DE00089F70097760771F7CF01BD01089597FB3A
:101DF000072E16F4009406D077FD08D02DD007FCEE
:101E000005D03EF4909581959F4F0895709561950A
:101E10007F4F0895A1E21A2EAA1BBB1BFD010DC026
:101E2000AA1FBB1FEE1FFF1FA217B307E407F5078A
:101E300020F0A21BB30BE40BF50B661F771F881F66
:101E4000991F1A9469F760957095809590959B01FC
:101E5000AC01BD01CF010895AA1BBB1B51E107C016
:101E6000AA1FBB1FA617B70710F0A61BB70B881F2A
:101E7000991F5A95A9F780959095BC01CD010895B9
:101E8000E199FECF9FBB8EBBE09A99278DB3089551
:101E9000262FE199FECF9FBB8EBBE09A01970DB232
:101EA000021639F01CBA2DBB0FB6F894E29AE19AEB
:081EB0000FBE0895F894FFCF66
:101EB800FFFFFFFF0101020406080A0C0E101214AE
:101EC80016181A1C0101030507090B0D0F1113152C
:101ED80017191B1D70009000B000D000F000100111
:061EE80030015001700101
:00000001FF
