:020000020000FC
:0200000009C035
:10001400002401E0102E0FE50DBF02E00EBFDE9AB2
:10002400DD9AD59A1CD000E00FBB00E00EBB01B7EF
:100034000DBB04E00CBB06E00CBB0000E199FECF55
:1000440018E000E229B326FFFDCF3BB3302729B3E4
:1000540026FDFDCF3BBB1A95A9F70000FFCF66270D
:1000640081E0000050E4650F61BF0000000031D062
:10007400403069F15695552331F0052F413009F48C
:100084000195600FF1CF413011F051E001C05FEFF5
:10009400650F61BF000000001CD04030C1F0650F47
:1000A40061BF0000000015D0403089F05195550F14
:1000B400550F650F61BF000000000BD0403039F0D0
:1000C400882319F08A9560E8CDCFD59AC7CF462FFB
:1000D4000895332401E0402E06E202BE11E0CE9BD7
:1000E400FECFCE99FECF13BF28B720FF02C0310C3C
:1000F40048BECE9BFECF28B720FF02C0310C48BEBD
:10010400CE99FECF28B720FF02C0310C48BECE9B4B
:10011400FECF28B720FF02C0310C48BECE99FECFD7
:100124000A9581F728B720FF02C0310C48BECE9B48
:10013400FECF28B720FF02C0310C48BECE99FECFB7
:1001440003BE28B720FF04C00894301C217028BFC8
:1001540022B61FE726E2211632063CF411EC25E212
:100164001215230524F440E0089541E008954FEF6B
:020174000895EC
:00000001FF
